{
  "_format": "hh-sol-artifact-1",
  "contractName": "Disperse",
  "sourceName": "contracts/Disperse.sol",
  "abi": [
    {
      "inputs": [
        {
          "internalType": "address[]",
          "name": "recipients",
          "type": "address[]"
        },
        {
          "internalType": "uint256[]",
          "name": "values",
          "type": "uint256[]"
        }
      ],
      "name": "disperseEther",
      "outputs": [],
      "stateMutability": "payable",
      "type": "function"
    },
    {
      "inputs": [
        {
          "internalType": "contract IERC20",
          "name": "tokenAddress",
          "type": "address"
        },
        {
          "internalType": "address payable[]",
          "name": "recipients",
          "type": "address[]"
        },
        {
          "internalType": "uint256[]",
          "name": "values",
          "type": "uint256[]"
        }
      ],
      "name": "disperseToken",
      "outputs": [],
      "stateMutability": "nonpayable",
      "type": "function"
    }
  ],
  "bytecode": "0x608060405234801561001057600080fd5b50610696806100206000396000f3fe6080604052600436106100295760003560e01c8063c73a2d601461002e578063e63d38ed14610050575b600080fd5b34801561003a57600080fd5b5061004e6100493660046104de565b610063565b005b61004e61005e3660046103fe565b610244565b846000805b858110156100b65784848281811061009057634e487b7160e01b600052603260045260246000fd5b90506020020135826100a291906105e9565b9150806100ae81610601565b915050610068565b506040516323b872dd60e01b81526001600160a01b038316906323b872dd906100e790339030908690600401610577565b602060405180830381600087803b15801561010157600080fd5b505af1158015610115573d6000803e3d6000fd5b505050506040513d601f19601f8201168201806040525081019061013991906104be565b61014257600080fd5b60005b8581101561023a57826001600160a01b031663a9059cbb88888481811061017c57634e487b7160e01b600052603260045260246000fd5b905060200201602081019061019191906103db565b8787858181106101b157634e487b7160e01b600052603260045260246000fd5b905060200201356040518363ffffffff1660e01b81526004016101d592919061055e565b602060405180830381600087803b1580156101ef57600080fd5b505af1158015610203573d6000803e3d6000fd5b505050506040513d601f19601f8201168201806040525081019061022791906104be565b508061023281610601565b915050610145565b5050505050505050565b60005b82518110156102ea5782818151811061027057634e487b7160e01b600052603260045260246000fd5b60200260200101516001600160a01b03166108fc8383815181106102a457634e487b7160e01b600052603260045260246000fd5b60200260200101519081150290604051600060405180830381858888f193505050501580156102d7573d6000803e3d6000fd5b50806102e281610601565b915050610247565b5047801561032157604051339082156108fc029083906000818181858888f1935050505015801561031f573d6000803e3d6000fd5b505b505050565b60008083601f840112610337578182fd5b50813567ffffffffffffffff81111561034e578182fd5b602083019150836020808302850101111561036857600080fd5b9250929050565b600082601f83011261037f578081fd5b8135602061039461038f836105c5565b61059b565b82815281810190858301838502870184018810156103b0578586fd5b855b858110156103ce578135845292840192908401906001016103b2565b5090979650505050505050565b6000602082840312156103ec578081fd5b81356103f781610648565b9392505050565b60008060408385031215610410578081fd5b823567ffffffffffffffff80821115610427578283fd5b818501915085601f83011261043a578283fd5b8135602061044a61038f836105c5565b82815281810190858301838502870184018b1015610466578788fd5b8796505b8487101561049157803561047d81610648565b83526001969096019591830191830161046a565b50965050860135925050808211156104a7578283fd5b506104b48582860161036f565b9150509250929050565b6000602082840312156104cf578081fd5b815180151581146103f7578182fd5b6000806000806000606086880312156104f5578081fd5b853561050081610648565b9450602086013567ffffffffffffffff8082111561051c578283fd5b61052889838a01610326565b90965094506040880135915080821115610540578283fd5b5061054d88828901610326565b969995985093965092949392505050565b6001600160a01b03929092168252602082015260400190565b6001600160a01b039384168152919092166020820152604081019190915260600190565b60405181810167ffffffffffffffff811182821017156105bd576105bd610632565b604052919050565b600067ffffffffffffffff8211156105df576105df610632565b5060209081020190565b600082198211156105fc576105fc61061c565b500190565b60006000198214156106155761061561061c565b5060010190565b634e487b7160e01b600052601160045260246000fd5b634e487b7160e01b600052604160045260246000fd5b6001600160a01b038116811461065d57600080fd5b5056fea2646970667358221220e5125b57fbf9cc6960ae9a6cba16ed48131020d78c16978d8a484d96725a6a1b64736f6c63430008000033",
  "linkReferences": {},
  "deployedLinkReferences": {}
}