{
  "_format": "hh-sol-artifact-1",
  "contractName": "Domains",
  "sourceName": "contracts/Domains.sol",
  "abi": [
    {
      "inputs": [
        {
          "internalType": "string",
          "name": "_tld",
          "type": "string"
        }
      ],
      "stateMutability": "payable",
      "type": "constructor"
    },
    {
      "inputs": [],
      "name": "AlreadyRegistered",
      "type": "error"
    },
    {
      "inputs": [
        {
          "internalType": "string",
          "name": "name",
          "type": "string"
        }
      ],
      "name": "InvalidName",
      "type": "error"
    },
    {
      "inputs": [],
      "name": "Unauthorized",
      "type": "error"
    },
    {
      "anonymous": false,
      "inputs": [
        {
          "indexed": true,
          "internalType": "address",
          "name": "owner",
          "type": "address"
        },
        {
          "indexed": true,
          "internalType": "address",
          "name": "approved",
          "type": "address"
        },
        {
          "indexed": true,
          "internalType": "uint256",
          "name": "tokenId",
          "type": "uint256"
        }
      ],
      "name": "Approval",
      "type": "event"
    },
    {
      "anonymous": false,
      "inputs": [
        {
          "indexed": true,
          "internalType": "address",
          "name": "owner",
          "type": "address"
        },
        {
          "indexed": true,
          "internalType": "address",
          "name": "operator",
          "type": "address"
        },
        {
          "indexed": false,
          "internalType": "bool",
          "name": "approved",
          "type": "bool"
        }
      ],
      "name": "ApprovalForAll",
      "type": "event"
    },
    {
      "anonymous": false,
      "inputs": [
        {
          "indexed": true,
          "internalType": "address",
          "name": "from",
          "type": "address"
        },
        {
          "indexed": true,
          "internalType": "address",
          "name": "to",
          "type": "address"
        },
        {
          "indexed": true,
          "internalType": "uint256",
          "name": "tokenId",
          "type": "uint256"
        }
      ],
      "name": "Transfer",
      "type": "event"
    },
    {
      "inputs": [
        {
          "internalType": "address",
          "name": "to",
          "type": "address"
        },
        {
          "internalType": "uint256",
          "name": "tokenId",
          "type": "uint256"
        }
      ],
      "name": "approve",
      "outputs": [],
      "stateMutability": "nonpayable",
      "type": "function"
    },
    {
      "inputs": [
        {
          "internalType": "address",
          "name": "owner",
          "type": "address"
        }
      ],
      "name": "balanceOf",
      "outputs": [
        {
          "internalType": "uint256",
          "name": "",
          "type": "uint256"
        }
      ],
      "stateMutability": "view",
      "type": "function"
    },
    {
      "inputs": [
        {
          "internalType": "string",
          "name": "",
          "type": "string"
        }
      ],
      "name": "domains",
      "outputs": [
        {
          "internalType": "address",
          "name": "",
          "type": "address"
        }
      ],
      "stateMutability": "view",
      "type": "function"
    },
    {
      "inputs": [
        {
          "internalType": "string",
          "name": "name",
          "type": "string"
        }
      ],
      "name": "getAddress",
      "outputs": [
        {
          "internalType": "address",
          "name": "",
          "type": "address"
        }
      ],
      "stateMutability": "view",
      "type": "function"
    },
    {
      "inputs": [],
      "name": "getAllData",
      "outputs": [
        {
          "internalType": "string[]",
          "name": "",
          "type": "string[]"
        }
      ],
      "stateMutability": "view",
      "type": "function"
    },
    {
      "inputs": [
        {
          "internalType": "address",
          "name": "addr_",
          "type": "address"
        }
      ],
      "name": "getAllDataOfAddress",
      "outputs": [
        {
          "internalType": "string[]",
          "name": "",
          "type": "string[]"
        }
      ],
      "stateMutability": "view",
      "type": "function"
    },
    {
      "inputs": [],
      "name": "getAllNamesCount",
      "outputs": [
        {
          "internalType": "uint256",
          "name": "",
          "type": "uint256"
        }
      ],
      "stateMutability": "view",
      "type": "function"
    },
    {
      "inputs": [
        {
          "internalType": "address",
          "name": "addr_",
          "type": "address"
        }
      ],
      "name": "getAllNamesOfAddressCount",
      "outputs": [
        {
          "internalType": "uint256",
          "name": "",
          "type": "uint256"
        }
      ],
      "stateMutability": "view",
      "type": "function"
    },
    {
      "inputs": [
        {
          "internalType": "uint256",
          "name": "tokenId",
          "type": "uint256"
        }
      ],
      "name": "getApproved",
      "outputs": [
        {
          "internalType": "address",
          "name": "",
          "type": "address"
        }
      ],
      "stateMutability": "view",
      "type": "function"
    },
    {
      "inputs": [
        {
          "internalType": "string",
          "name": "name",
          "type": "string"
        }
      ],
      "name": "getRecord",
      "outputs": [
        {
          "internalType": "string",
          "name": "",
          "type": "string"
        }
      ],
      "stateMutability": "view",
      "type": "function"
    },
    {
      "inputs": [
        {
          "internalType": "address",
          "name": "owner",
          "type": "address"
        },
        {
          "internalType": "address",
          "name": "operator",
          "type": "address"
        }
      ],
      "name": "isApprovedForAll",
      "outputs": [
        {
          "internalType": "bool",
          "name": "",
          "type": "bool"
        }
      ],
      "stateMutability": "view",
      "type": "function"
    },
    {
      "inputs": [],
      "name": "isOwner",
      "outputs": [
        {
          "internalType": "bool",
          "name": "",
          "type": "bool"
        }
      ],
      "stateMutability": "view",
      "type": "function"
    },
    {
      "inputs": [],
      "name": "name",
      "outputs": [
        {
          "internalType": "string",
          "name": "",
          "type": "string"
        }
      ],
      "stateMutability": "view",
      "type": "function"
    },
    {
      "inputs": [
        {
          "internalType": "uint256",
          "name": "",
          "type": "uint256"
        }
      ],
      "name": "names",
      "outputs": [
        {
          "internalType": "string",
          "name": "",
          "type": "string"
        }
      ],
      "stateMutability": "view",
      "type": "function"
    },
    {
      "inputs": [],
      "name": "owner",
      "outputs": [
        {
          "internalType": "address payable",
          "name": "",
          "type": "address"
        }
      ],
      "stateMutability": "view",
      "type": "function"
    },
    {
      "inputs": [
        {
          "internalType": "uint256",
          "name": "tokenId",
          "type": "uint256"
        }
      ],
      "name": "ownerOf",
      "outputs": [
        {
          "internalType": "address",
          "name": "",
          "type": "address"
        }
      ],
      "stateMutability": "view",
      "type": "function"
    },
    {
      "inputs": [
        {
          "internalType": "string",
          "name": "name",
          "type": "string"
        }
      ],
      "name": "price",
      "outputs": [
        {
          "internalType": "uint256",
          "name": "",
          "type": "uint256"
        }
      ],
      "stateMutability": "pure",
      "type": "function"
    },
    {
      "inputs": [
        {
          "internalType": "string",
          "name": "",
          "type": "string"
        }
      ],
      "name": "records",
      "outputs": [
        {
          "internalType": "string",
          "name": "",
          "type": "string"
        }
      ],
      "stateMutability": "view",
      "type": "function"
    },
    {
      "inputs": [
        {
          "internalType": "string",
          "name": "name",
          "type": "string"
        },
        {
          "internalType": "string",
          "name": "record",
          "type": "string"
        }
      ],
      "name": "registers",
      "outputs": [],
      "stateMutability": "payable",
      "type": "function"
    },
    {
      "inputs": [
        {
          "internalType": "address",
          "name": "from",
          "type": "address"
        },
        {
          "internalType": "address",
          "name": "to",
          "type": "address"
        },
        {
          "internalType": "uint256",
          "name": "tokenId",
          "type": "uint256"
        }
      ],
      "name": "safeTransferFrom",
      "outputs": [],
      "stateMutability": "nonpayable",
      "type": "function"
    },
    {
      "inputs": [
        {
          "internalType": "address",
          "name": "from",
          "type": "address"
        },
        {
          "internalType": "address",
          "name": "to",
          "type": "address"
        },
        {
          "internalType": "uint256",
          "name": "tokenId",
          "type": "uint256"
        },
        {
          "internalType": "bytes",
          "name": "_data",
          "type": "bytes"
        }
      ],
      "name": "safeTransferFrom",
      "outputs": [],
      "stateMutability": "nonpayable",
      "type": "function"
    },
    {
      "inputs": [
        {
          "internalType": "address",
          "name": "operator",
          "type": "address"
        },
        {
          "internalType": "bool",
          "name": "approved",
          "type": "bool"
        }
      ],
      "name": "setApprovalForAll",
      "outputs": [],
      "stateMutability": "nonpayable",
      "type": "function"
    },
    {
      "inputs": [
        {
          "internalType": "string",
          "name": "name",
          "type": "string"
        },
        {
          "internalType": "string",
          "name": "record",
          "type": "string"
        }
      ],
      "name": "setRecord",
      "outputs": [],
      "stateMutability": "nonpayable",
      "type": "function"
    },
    {
      "inputs": [
        {
          "internalType": "bytes4",
          "name": "interfaceId",
          "type": "bytes4"
        }
      ],
      "name": "supportsInterface",
      "outputs": [
        {
          "internalType": "bool",
          "name": "",
          "type": "bool"
        }
      ],
      "stateMutability": "view",
      "type": "function"
    },
    {
      "inputs": [],
      "name": "symbol",
      "outputs": [
        {
          "internalType": "string",
          "name": "",
          "type": "string"
        }
      ],
      "stateMutability": "view",
      "type": "function"
    },
    {
      "inputs": [],
      "name": "tld",
      "outputs": [
        {
          "internalType": "string",
          "name": "",
          "type": "string"
        }
      ],
      "stateMutability": "view",
      "type": "function"
    },
    {
      "inputs": [
        {
          "internalType": "uint256",
          "name": "tokenId",
          "type": "uint256"
        }
      ],
      "name": "tokenURI",
      "outputs": [
        {
          "internalType": "string",
          "name": "",
          "type": "string"
        }
      ],
      "stateMutability": "view",
      "type": "function"
    },
    {
      "inputs": [
        {
          "internalType": "address",
          "name": "from",
          "type": "address"
        },
        {
          "internalType": "address",
          "name": "to",
          "type": "address"
        },
        {
          "internalType": "uint256",
          "name": "tokenId",
          "type": "uint256"
        }
      ],
      "name": "transferFrom",
      "outputs": [],
      "stateMutability": "nonpayable",
      "type": "function"
    },
    {
      "inputs": [
        {
          "internalType": "string",
          "name": "name",
          "type": "string"
        }
      ],
      "name": "valid",
      "outputs": [
        {
          "internalType": "bool",
          "name": "",
          "type": "bool"
        }
      ],
      "stateMutability": "pure",
      "type": "function"
    },
    {
      "inputs": [],
      "name": "withdraw",
      "outputs": [],
      "stateMutability": "nonpayable",
      "type": "function"
    }
  ],
  "bytecode": "0x6105c060405261051f6080818152906200358960a03980516200002b91600d91602090910190620001e8565b5060408051808201909152600d8082526c1e17ba32bc3a1f1e17b9bb339f60991b60209092019182526200006291600e91620001e8565b5060405162003acc38038062003acc8339810160408190526200008591620002d7565b60405180606001604052806024815260200162003aa86024913960405180604001604052806012815260200171536861726465756d2055736572204e616d6560701b8152508160009080519060200190620000e2929190620001e8565b508051620000f8906001906020840190620001e8565b5050600c80546001600160a01b0319163317905550805162000122906008906020840190620001e8565b506200016f6040518060400160405280601981526020017f2573206e616d65207365727669636573206465706c6f79656400000000000000815250826200017660201b620016eb1760201c565b506200042c565b620001c382826040516024016200018f929190620003bd565b60408051601f198184030181529190526020810180516001600160e01b03908116634b5c427760e01b17909152620001c716565b5050565b80516a636f6e736f6c652e6c6f67602083016000808483855afa5050505050565b828054620001f690620003ef565b90600052602060002090601f0160209004810192826200021a576000855562000265565b82601f106200023557805160ff191683800117855562000265565b8280016001018555821562000265579182015b828111156200026557825182559160200191906001019062000248565b506200027392915062000277565b5090565b5b8082111562000273576000815560010162000278565b634e487b7160e01b600052604160045260246000fd5b60005b83811015620002c1578181015183820152602001620002a7565b83811115620002d1576000848401525b50505050565b600060208284031215620002ea57600080fd5b81516001600160401b03808211156200030257600080fd5b818401915084601f8301126200031757600080fd5b8151818111156200032c576200032c6200028e565b604051601f8201601f19908116603f011681019083821181831017156200035757620003576200028e565b816040528281528760208487010111156200037157600080fd5b62000384836020830160208801620002a4565b979650505050505050565b60008151808452620003a9816020860160208601620002a4565b601f01601f19169290920160200192915050565b604081526000620003d260408301856200038f565b8281036020840152620003e681856200038f565b95945050505050565b600181811c908216806200040457607f821691505b602082108114156200042657634e487b7160e01b600052602260045260246000fd5b50919050565b61314d806200043c6000396000f3fe6080604052600436106101cd5760003560e01c806370a08231116100f7578063a22cb46511610095578063c87b56dd11610064578063c87b56dd1461053b578063d6f7ae661461055b578063e985e9c51461057b578063fe2c6198146105c457600080fd5b8063a22cb465146104bb578063b88d4fde146104db578063bf40fac1146104fb578063c1880a981461051b57600080fd5b806395d89b41116100d157806395d89b41146104535780639791c0971461046857806399d6f2c6146104885780639cc18a271461049b57600080fd5b806370a08231146103f35780638da5cb5b146104135780638f32d59b1461043357600080fd5b8063264492351161016f57806342842e0e1161013e57806342842e0e146103735780634622ab0314610393578063541e771d146103b35780636352211e146103d357600080fd5b806326449235146102e65780632d10fa28146103275780632d551432146103495780633ccfd60b1461035e57600080fd5b8063081812fc116101ab578063081812fc1461024c578063095ea7b31461028457806311dd8845146102a657806323b872dd146102c657600080fd5b8063018e29e7146101d257806301ffc9a7146101fa57806306fdde031461022a575b600080fd5b3480156101de57600080fd5b506101e76105e4565b6040519081526020015b60405180910390f35b34801561020657600080fd5b5061021a61021536600461263b565b6105f4565b60405190151581526020016101f1565b34801561023657600080fd5b5061023f610646565b6040516101f191906126b0565b34801561025857600080fd5b5061026c6102673660046126c3565b6106d8565b6040516001600160a01b0390911681526020016101f1565b34801561029057600080fd5b506102a461029f3660046126f8565b610765565b005b3480156102b257600080fd5b5061023f6102c136600461276b565b61087b565b3480156102d257600080fd5b506102a46102e13660046127ad565b61092e565b3480156102f257600080fd5b5061026c610301366004612875565b80516020818301810180516009825292820191909301209152546001600160a01b031681565b34801561033357600080fd5b5061033c61095f565b6040516101f191906128be565b34801561035557600080fd5b5061023f610a9b565b34801561036a57600080fd5b506102a4610b29565b34801561037f57600080fd5b506102a461038e3660046127ad565b610bd7565b34801561039f57600080fd5b5061023f6103ae3660046126c3565b610bf2565b3480156103bf57600080fd5b5061023f6103ce366004612875565b610c0b565b3480156103df57600080fd5b5061026c6103ee3660046126c3565b610c2f565b3480156103ff57600080fd5b506101e761040e366004612920565b610ca6565b34801561041f57600080fd5b50600c5461026c906001600160a01b031681565b34801561043f57600080fd5b50600c546001600160a01b0316331461021a565b34801561045f57600080fd5b5061023f610d2d565b34801561047457600080fd5b5061021a61048336600461276b565b610d3c565b6102a461049636600461293b565b610dd3565b3480156104a757600080fd5b5061033c6104b6366004612920565b6111fb565b3480156104c757600080fd5b506102a46104d63660046129a7565b611359565b3480156104e757600080fd5b506102a46104f63660046129e3565b611364565b34801561050757600080fd5b5061026c61051636600461276b565b61139c565b34801561052757600080fd5b506102a461053636600461293b565b6113d1565b34801561054757600080fd5b5061023f6105563660046126c3565b611451565b34801561056757600080fd5b506101e7610576366004612920565b6115c8565b34801561058757600080fd5b5061021a610596366004612a5f565b6001600160a01b03918216600090815260056020908152604080832093909416825291909152205460ff1690565b3480156105d057600080fd5b506101e76105df36600461276b565b611638565b60006105ef60075490565b905090565b60006001600160e01b031982166380ac58cd60e01b148061062557506001600160e01b03198216635b5e139f60e01b145b8061064057506301ffc9a760e01b6001600160e01b03198316145b92915050565b60606000805461065590612a92565b80601f016020809104026020016040519081016040528092919081815260200182805461068190612a92565b80156106ce5780601f106106a3576101008083540402835291602001916106ce565b820191906000526020600020905b8154815290600101906020018083116106b157829003601f168201915b5050505050905090565b60006106e382611730565b6107495760405162461bcd60e51b815260206004820152602c60248201527f4552433732313a20617070726f76656420717565727920666f72206e6f6e657860448201526b34b9ba32b73a103a37b5b2b760a11b60648201526084015b60405180910390fd5b506000908152600460205260409020546001600160a01b031690565b600061077082610c2f565b9050806001600160a01b0316836001600160a01b031614156107de5760405162461bcd60e51b815260206004820152602160248201527f4552433732313a20617070726f76616c20746f2063757272656e74206f776e656044820152603960f91b6064820152608401610740565b336001600160a01b03821614806107fa57506107fa8133610596565b61086c5760405162461bcd60e51b815260206004820152603860248201527f4552433732313a20617070726f76652063616c6c6572206973206e6f74206f7760448201527f6e6572206e6f7220617070726f76656420666f7220616c6c00000000000000006064820152608401610740565b610876838361174d565b505050565b6060600a838360405161088f929190612ac7565b908152602001604051809103902080546108a890612a92565b80601f01602080910402602001604051908101604052809291908181526020018280546108d490612a92565b80156109215780601f106108f657610100808354040283529160200191610921565b820191906000526020600020905b81548152906001019060200180831161090457829003601f168201915b5050505050905092915050565b61093833826117bb565b6109545760405162461bcd60e51b815260040161074090612ad7565b6108768383836118a4565b6060600061096c60075490565b67ffffffffffffffff811115610984576109846127e9565b6040519080825280602002602001820160405280156109b757816020015b60608152602001906001900390816109a25790505b50905060005b600754811015610a95576000818152600b6020526040908190209051600a906109e7908390612bc2565b9081526020016040518091039020610a3a6009600b6000868152602001908152602001600020604051610a1a9190612bc2565b908152604051908190036020019020546001600160a01b03166014611a40565b610a4384611bdc565b604051602001610a569493929190612bce565b604051602081830303815290604052828281518110610a7757610a77612c32565b60200260200101819052508080610a8d90612c5e565b9150506109bd565b50919050565b60088054610aa890612a92565b80601f0160208091040260200160405190810160405280929190818152602001828054610ad490612a92565b8015610b215780601f10610af657610100808354040283529160200191610b21565b820191906000526020600020905b815481529060010190602001808311610b0457829003601f168201915b505050505081565b600c546001600160a01b03163314610b4057600080fd5b6040514790600090339083908381818185875af1925050503d8060008114610b84576040519150601f19603f3d011682016040523d82523d6000602084013e610b89565b606091505b5050905080610bd35760405162461bcd60e51b81526020600482015260166024820152756661696c656420746f2077697468647261772053484d60501b6044820152606401610740565b5050565b61087683838360405180602001604052806000815250611364565b600b6020526000908152604090208054610aa890612a92565b8051602081830181018051600a8252928201919093012091528054610aa890612a92565b6000818152600260205260408120546001600160a01b0316806106405760405162461bcd60e51b815260206004820152602960248201527f4552433732313a206f776e657220717565727920666f72206e6f6e657869737460448201526832b73a103a37b5b2b760b91b6064820152608401610740565b60006001600160a01b038216610d115760405162461bcd60e51b815260206004820152602a60248201527f4552433732313a2062616c616e636520717565727920666f7220746865207a65604482015269726f206164647265737360b01b6064820152608401610740565b506001600160a01b031660009081526003602052604090205490565b60606001805461065590612a92565b60006003610d7f84848080601f016020809104026020016040519081016040528093929190818152602001838380828437600092019190915250611cda92505050565b10158015610dcc5750600c610dc984848080601f016020809104026020016040519081016040528093929190818152602001838380828437600092019190915250611cda92505050565b11155b9392505050565b60006001600160a01b031660098585604051610df0929190612ac7565b908152604051908190036020019020546001600160a01b031614610e2757604051630ea075bf60e21b815260040160405180910390fd5b610e318484610d3c565b610e52578383604051637f19f48d60e01b8152600401610740929190612c79565b6000610e5e8585611638565b905080341015610ea65760405162461bcd60e51b81526020600482015260136024820152721b9bdd08195b9bdd59da0814d213481c185a59606a1b6044820152606401610740565b600085856008604051602001610ebe93929190612ca8565b60408051601f1981840301815282820190915260058252645f6e616d6560d81b60208301529150610eef90826116eb565b6000600d82600e604051602001610f0893929190612cd1565b60405160208183030381529060405290506000610f2460075490565b90506000610f6789898080601f016020809104026020016040519081016040528093929190818152602001838380828437600092019190915250611cda92505050565b90506000610f7482611bdc565b9050610fd06040518060600160405280602e8152602001613038602e91398b8b8080601f016020809104026020016040519081016040528093929190818152602001838380828437600092019190915250889250611ddd915050565b600061100686610fdf87611e24565b84604051602001610ff293929190612d04565b604051602081830303815290604052611e24565b905060008160405160200161101b9190612df0565b60408051601f1981840301815260608301909152603980835290925061104991906130666020830139611f8a565b6110796040518060400160405280600e81526020016d46696e616c20746f6b656e55524960901b815250826116eb565b61109a60405180606001604052806039815260200161309f60399139611f8a565b6110a43386611fd0565b6110ae8582611fea565b3360098d8d6040516110c1929190612ac7565b908152602001604051809103902060006101000a8154816001600160a01b0302191690836001600160a01b031602179055508989600a8e8e604051611107929190612ac7565b908152604051908190036020019020611121929091612518565b506111616040518060400160405280601981526020017f25732068617320726567697374726564206120646f6d61696e0000000000000081525033612075565b6111c56040518060400160405280600c81526020016b185b990818481c9958dbdc9960a21b8152508b8b8080601f0160208091040260200160405190810160405280939291908181526020018383808284376000920191909152506116eb92505050565b6000858152600b602052604090206111de908d8d612518565b506111ed600780546001019055565b505050505050505050505050565b6060600061120860075490565b67ffffffffffffffff811115611220576112206127e9565b60405190808252806020026020018201604052801561125357816020015b606081526020019060019003908161123e5790505b50905060005b600754811015611352576000818152600b602052604090819020905160099161128191612bc2565b908152604051908190036020019020546001600160a01b0385811691161415611340576000818152600b6020526040908190209051600a906112c4908390612bc2565b90815260200160405180910390206112f76009600b6000868152602001908152602001600020604051610a1a9190612bc2565b61130084611bdc565b6040516020016113139493929190612bce565b60405160208183030381529060405282828151811061133457611334612c32565b60200260200101819052505b8061134a81612c5e565b915050611259565b5092915050565b610bd33383836120ba565b61136e33836117bb565b61138a5760405162461bcd60e51b815260040161074090612ad7565b61139684848484612189565b50505050565b6000600983836040516113b0929190612ac7565b908152604051908190036020019020546001600160a01b0316905092915050565b600984846040516113e3929190612ac7565b90815260405190819003602001902054336001600160a01b039091161461141c576040516282b42960e81b815260040160405180910390fd5b8181600a8686604051611430929190612ac7565b90815260405190819003602001902061144a929091612518565b5050505050565b606061145c82611730565b6114c25760405162461bcd60e51b815260206004820152603160248201527f45524337323155524953746f726167653a2055524920717565727920666f72206044820152703737b732bc34b9ba32b73a103a37b5b2b760791b6064820152608401610740565b600082815260066020526040812080546114db90612a92565b80601f016020809104026020016040519081016040528092919081815260200182805461150790612a92565b80156115545780601f1061152957610100808354040283529160200191611554565b820191906000526020600020905b81548152906001019060200180831161153757829003601f168201915b50505050509050600061157260408051602081019091526000815290565b9050805160001415611585575092915050565b8151156115b757808260405160200161159f929190612e35565b60405160208183030381529060405292505050919050565b6115c0846121bc565b949350505050565b600080805b600754811015611352576000818152600b60205260409081902090516009916115f591612bc2565b908152604051908190036020019020546001600160a01b0385811691161415611626578161162281612c5e565b9250505b8061163081612c5e565b9150506115cd565b60008061167a84848080601f016020809104026020016040519081016040528093929190818152602001838380828437600092019190915250611cda92505050565b90506002811161168957600080fd5b80600314156116a4576804e1003b28d9280000915050610640565b80600414156116bf576802b5e3af16b1880000915050610640565b80600514156116da576801a055690d9db80000915050610640565b678ac7230489e80000915050610640565b610bd38282604051602401611701929190612e64565b60408051601f198184030181529190526020810180516001600160e01b0316634b5c427760e01b179052612293565b6000908152600260205260409020546001600160a01b0316151590565b600081815260046020526040902080546001600160a01b0319166001600160a01b038416908117909155819061178282610c2f565b6001600160a01b03167f8c5be1e5ebec7d5bd14f71427d1e84f3dd0314c0f7b2291e5b200ac8c7c3b92560405160405180910390a45050565b60006117c682611730565b6118275760405162461bcd60e51b815260206004820152602c60248201527f4552433732313a206f70657261746f7220717565727920666f72206e6f6e657860448201526b34b9ba32b73a103a37b5b2b760a11b6064820152608401610740565b600061183283610c2f565b9050806001600160a01b0316846001600160a01b0316148061187957506001600160a01b0380821660009081526005602090815260408083209388168352929052205460ff165b806115c05750836001600160a01b0316611892846106d8565b6001600160a01b031614949350505050565b826001600160a01b03166118b782610c2f565b6001600160a01b03161461191b5760405162461bcd60e51b815260206004820152602560248201527f4552433732313a207472616e736665722066726f6d20696e636f72726563742060448201526437bbb732b960d91b6064820152608401610740565b6001600160a01b03821661197d5760405162461bcd60e51b8152602060048201526024808201527f4552433732313a207472616e7366657220746f20746865207a65726f206164646044820152637265737360e01b6064820152608401610740565b61198860008261174d565b6001600160a01b03831660009081526003602052604081208054600192906119b1908490612e92565b90915550506001600160a01b03821660009081526003602052604081208054600192906119df908490612ea9565b909155505060008181526002602052604080822080546001600160a01b0319166001600160a01b0386811691821790925591518493918716917fddf252ad1be2c89b69c2b068fc378daa952ba7f163c4a11628f55a4df523b3ef91a4505050565b60606000611a4f836002612ec1565b611a5a906002612ea9565b67ffffffffffffffff811115611a7257611a726127e9565b6040519080825280601f01601f191660200182016040528015611a9c576020820181803683370190505b509050600360fc1b81600081518110611ab757611ab7612c32565b60200101906001600160f81b031916908160001a905350600f60fb1b81600181518110611ae657611ae6612c32565b60200101906001600160f81b031916908160001a9053506000611b0a846002612ec1565b611b15906001612ea9565b90505b6001811115611b8d576f181899199a1a9b1b9c1cb0b131b232b360811b85600f1660108110611b4957611b49612c32565b1a60f81b828281518110611b5f57611b5f612c32565b60200101906001600160f81b031916908160001a90535060049490941c93611b8681612ee0565b9050611b18565b508315610dcc5760405162461bcd60e51b815260206004820181905260248201527f537472696e67733a20686578206c656e67746820696e73756666696369656e746044820152606401610740565b606081611c005750506040805180820190915260018152600360fc1b602082015290565b8160005b8115611c2a5780611c1481612c5e565b9150611c239050600a83612f0d565b9150611c04565b60008167ffffffffffffffff811115611c4557611c456127e9565b6040519080825280601f01601f191660200182016040528015611c6f576020820181803683370190505b5090505b84156115c057611c84600183612e92565b9150611c91600a86612f21565b611c9c906030612ea9565b60f81b818381518110611cb157611cb1612c32565b60200101906001600160f81b031916908160001a905350611cd3600a86612f0d565b9450611c73565b8051600090819081905b80821015611dd4576000858381518110611d0057611d00612c32565b01602001516001600160f81b0319169050600160ff1b811015611d2f57611d28600184612ea9565b9250611dc1565b600760fd1b6001600160f81b031982161015611d5057611d28600284612ea9565b600f60fc1b6001600160f81b031982161015611d7157611d28600384612ea9565b601f60fb1b6001600160f81b031982161015611d9257611d28600484612ea9565b603f60fa1b6001600160f81b031982161015611db357611d28600584612ea9565b611dbe600684612ea9565b92505b5082611dcc81612c5e565b935050611ce4565b50909392505050565b610876838383604051602401611df593929190612f35565b60408051601f198184030181529190526020810180516001600160e01b031663f362ca5960e01b179052612293565b805160609080611e44575050604080516020810190915260008152919050565b60006003611e53836002612ea9565b611e5d9190612f0d565b611e68906004612ec1565b90506000611e77826020612ea9565b67ffffffffffffffff811115611e8f57611e8f6127e9565b6040519080825280601f01601f191660200182016040528015611eb9576020820181803683370190505b50905060006040518060600160405280604081526020016130d8604091399050600181016020830160005b86811015611f45576003818a01810151603f601282901c8116860151600c83901c8216870151600684901c831688015192909316870151600891821b60ff94851601821b92841692909201901b91160160e01b835260049092019101611ee4565b506003860660018114611f5f5760028114611f7057611f7c565b613d3d60f01b600119830152611f7c565b603d60f81b6000198301525b505050918152949350505050565b611fcd81604051602401611f9e91906126b0565b60408051601f198184030181529190526020810180516001600160e01b031663104c13eb60e21b179052612293565b50565b610bd38282604051806020016040528060008152506122b4565b611ff382611730565b6120565760405162461bcd60e51b815260206004820152602e60248201527f45524337323155524953746f726167653a2055524920736574206f66206e6f6e60448201526d32bc34b9ba32b73a103a37b5b2b760911b6064820152608401610740565b600082815260066020908152604090912082516108769284019061259c565b610bd3828260405160240161208b929190612f6b565b60408051601f198184030181529190526020810180516001600160e01b031663319af33360e01b179052612293565b816001600160a01b0316836001600160a01b0316141561211c5760405162461bcd60e51b815260206004820152601960248201527f4552433732313a20617070726f766520746f2063616c6c6572000000000000006044820152606401610740565b6001600160a01b03838116600081815260056020908152604080832094871680845294825291829020805460ff191686151590811790915591519182527f17307eab39ab6107e8899845ad3d59bd9653f200f220920489ca2b5937696c31910160405180910390a3505050565b6121948484846118a4565b6121a0848484846122e7565b6113965760405162461bcd60e51b815260040161074090612f95565b60606121c782611730565b61222b5760405162461bcd60e51b815260206004820152602f60248201527f4552433732314d657461646174613a2055524920717565727920666f72206e6f60448201526e3732bc34b9ba32b73a103a37b5b2b760891b6064820152608401610740565b600061224260408051602081019091526000815290565b905060008151116122625760405180602001604052806000815250610dcc565b8061226c84611bdc565b60405160200161227d929190612e35565b6040516020818303038152906040529392505050565b80516a636f6e736f6c652e6c6f67602083016000808483855afa5050505050565b6122be83836123e5565b6122cb60008484846122e7565b6108765760405162461bcd60e51b815260040161074090612f95565b60006001600160a01b0384163b156123da57604051630a85bd0160e11b81526001600160a01b0385169063150b7a029061232b903390899088908890600401612fe7565b6020604051808303816000875af1925050508015612366575060408051601f3d908101601f191682019092526123639181019061301a565b60015b6123c0573d808015612394576040519150601f19603f3d011682016040523d82523d6000602084013e612399565b606091505b5080516123b85760405162461bcd60e51b815260040161074090612f95565b805181602001fd5b6001600160e01b031916630a85bd0160e11b1490506115c0565b506001949350505050565b6001600160a01b03821661243b5760405162461bcd60e51b815260206004820181905260248201527f4552433732313a206d696e7420746f20746865207a65726f20616464726573736044820152606401610740565b61244481611730565b156124915760405162461bcd60e51b815260206004820152601c60248201527f4552433732313a20746f6b656e20616c7265616479206d696e746564000000006044820152606401610740565b6001600160a01b03821660009081526003602052604081208054600192906124ba908490612ea9565b909155505060008181526002602052604080822080546001600160a01b0319166001600160a01b03861690811790915590518392907fddf252ad1be2c89b69c2b068fc378daa952ba7f163c4a11628f55a4df523b3ef908290a45050565b82805461252490612a92565b90600052602060002090601f016020900481019282612546576000855561258c565b82601f1061255f5782800160ff1982351617855561258c565b8280016001018555821561258c579182015b8281111561258c578235825591602001919060010190612571565b50612598929150612610565b5090565b8280546125a890612a92565b90600052602060002090601f0160209004810192826125ca576000855561258c565b82601f106125e357805160ff191683800117855561258c565b8280016001018555821561258c579182015b8281111561258c5782518255916020019190600101906125f5565b5b808211156125985760008155600101612611565b6001600160e01b031981168114611fcd57600080fd5b60006020828403121561264d57600080fd5b8135610dcc81612625565b60005b8381101561267357818101518382015260200161265b565b838111156113965750506000910152565b6000815180845261269c816020860160208601612658565b601f01601f19169290920160200192915050565b602081526000610dcc6020830184612684565b6000602082840312156126d557600080fd5b5035919050565b80356001600160a01b03811681146126f357600080fd5b919050565b6000806040838503121561270b57600080fd5b612714836126dc565b946020939093013593505050565b60008083601f84011261273457600080fd5b50813567ffffffffffffffff81111561274c57600080fd5b60208301915083602082850101111561276457600080fd5b9250929050565b6000806020838503121561277e57600080fd5b823567ffffffffffffffff81111561279557600080fd5b6127a185828601612722565b90969095509350505050565b6000806000606084860312156127c257600080fd5b6127cb846126dc565b92506127d9602085016126dc565b9150604084013590509250925092565b634e487b7160e01b600052604160045260246000fd5b600067ffffffffffffffff8084111561281a5761281a6127e9565b604051601f8501601f19908116603f01168101908282118183101715612842576128426127e9565b8160405280935085815286868601111561285b57600080fd5b858560208301376000602087830101525050509392505050565b60006020828403121561288757600080fd5b813567ffffffffffffffff81111561289e57600080fd5b8201601f810184136128af57600080fd5b6115c0848235602084016127ff565b6000602080830181845280855180835260408601915060408160051b870101925083870160005b8281101561291357603f19888603018452612901858351612684565b945092850192908501906001016128e5565b5092979650505050505050565b60006020828403121561293257600080fd5b610dcc826126dc565b6000806000806040858703121561295157600080fd5b843567ffffffffffffffff8082111561296957600080fd5b61297588838901612722565b9096509450602087013591508082111561298e57600080fd5b5061299b87828801612722565b95989497509550505050565b600080604083850312156129ba57600080fd5b6129c3836126dc565b9150602083013580151581146129d857600080fd5b809150509250929050565b600080600080608085870312156129f957600080fd5b612a02856126dc565b9350612a10602086016126dc565b925060408501359150606085013567ffffffffffffffff811115612a3357600080fd5b8501601f81018713612a4457600080fd5b612a53878235602084016127ff565b91505092959194509250565b60008060408385031215612a7257600080fd5b612a7b836126dc565b9150612a89602084016126dc565b90509250929050565b600181811c90821680612aa657607f821691505b60208210811415610a9557634e487b7160e01b600052602260045260246000fd5b8183823760009101908152919050565b60208082526031908201527f4552433732313a207472616e736665722063616c6c6572206973206e6f74206f6040820152701ddb995c881b9bdc88185c1c1c9bdd9959607a1b606082015260800190565b8054600090600181811c9080831680612b4257607f831692505b6020808410821415612b6457634e487b7160e01b600052602260045260246000fd5b818015612b785760018114612b8957612bb6565b60ff19861689528489019650612bb6565b60008881526020902060005b86811015612bae5781548b820152908501908301612b95565b505084890196505b50505050505092915050565b6000610dcc8284612b28565b6000612bda8287612b28565b621f0adf60ea1b808252612bf16003830188612b28565b91508082528551612c09816003850160208a01612658565b60039201918201528351612c24816006840160208801612658565b016006019695505050505050565b634e487b7160e01b600052603260045260246000fd5b634e487b7160e01b600052601160045260246000fd5b6000600019821415612c7257612c72612c48565b5060010190565b60208152816020820152818360408301376000818301604090810191909152601f909201601f19160101919050565b82848237601760f91b818401908152600090612cc76001820185612b28565b9695505050505050565b6000612cdd8286612b28565b8451612ced818360208901612658565b612cf981830186612b28565b979650505050505050565b683d913730b6b2911d1160b91b81528351600090612d29816009850160208901612658565b7f222c226465736372697074696f6e223a22536861726465756d2075736572206e6009918401918201527f616d65204e4654207c2053484d222c22696d616765223a22646174613a696d6160298201527119d94bdcdd99cade1b5b0ed8985cd94d8d0b60721b60498201528451612da781605b840160208901612658565b6b1116113632b733ba34111d1160a11b605b92909101918201528351612dd4816067840160208801612658565b61227d60f01b6067929091019182015260690195945050505050565b7f646174613a6170706c69636174696f6e2f6a736f6e3b6261736536342c000000815260008251612e2881601d850160208701612658565b91909101601d0192915050565b60008351612e47818460208801612658565b835190830190612e5b818360208801612658565b01949350505050565b604081526000612e776040830185612684565b8281036020840152612e898185612684565b95945050505050565b600082821015612ea457612ea4612c48565b500390565b60008219821115612ebc57612ebc612c48565b500190565b6000816000190483118215151615612edb57612edb612c48565b500290565b600081612eef57612eef612c48565b506000190190565b634e487b7160e01b600052601260045260246000fd5b600082612f1c57612f1c612ef7565b500490565b600082612f3057612f30612ef7565b500690565b606081526000612f486060830186612684565b8281036020840152612f5a8186612684565b915050826040830152949350505050565b604081526000612f7e6040830185612684565b905060018060a01b03831660208301529392505050565b60208082526032908201527f4552433732313a207472616e7366657220746f206e6f6e20455243373231526560408201527131b2b4bb32b91034b6b83632b6b2b73a32b960711b606082015260800190565b6001600160a01b0385811682528416602082015260408101839052608060608201819052600090612cc790830184612684565b60006020828403121561302c57600080fd5b8151610dcc8161262556fe5265676973746572696e67202573206f6e2074686520636f6e7472616374207769746820746f6b656e49642025640a2d2d2d2d2d2d2d2d2d2d2d2d2d2d2d2d2d2d2d2d2d2d2d2d2d2d2d2d2d2d2d2d2d2d2d2d2d2d2d2d2d2d2d2d2d2d2d2d2d2d2d2d2d2d2d2d2d2d2d2d2d2d2d2d2d2d2d2d2d2d2d2d2d2d2d2d2d2d2d2d2d2d2d2d2d2d2d2d2d2d2d2d2d2d2d2d2d2d2d2d2d2d2d2d2d2d2d2d2d2d2d2d0a4142434445464748494a4b4c4d4e4f505152535455565758595a6162636465666768696a6b6c6d6e6f707172737475767778797a303132333435363738392b2fa26469706673582212200781da0b417a9796e227aa25c690ed5669f5e695e5c9ab56fde0b654feeeb26564736f6c634300080a00333c73766720786d6c6e733d22687474703a2f2f7777772e77332e6f72672f323030302f737667222077696474683d2232383022206865696768743d22323830222066696c6c3d226e6f6e65223e3c706174682066696c6c3d2275726c282361292220643d224d302030683238307632383048307a222f3e3c646566733e3c66696c7465722069643d22622220636f6c6f722d696e746572706f6c6174696f6e2d66696c746572733d2273524742222066696c746572556e6974733d227573657253706163654f6e55736522206865696768743d22323830222077696474683d22323830223e3c666544726f70536861646f772064783d2230222064793d22312220737464446576696174696f6e3d22322220666c6f6f642d6f7061636974793d222e323235222077696474683d223230302522206865696768743d2232303025222f3e3c2f66696c7465723e3c2f646566733e3c73766720783d2231352220793d223135222077696474683d2231323022206865696768743d22313038222076696577426f783d223020302031323020313038222066696c6c3d226e6f6e652220786d6c6e733d22687474703a2f2f7777772e77332e6f72672f323030302f737667223e3c7061746820643d224d32392e343335382037372e323838384c31362e3732313320313030483130332e3237394c39302e353634332037372e323838384832392e343335385a222066696c6c3d227768697465222f3e3c7061746820643d224d36302032322e373131324c34372e3238353620304c342037372e323838394832392e343335384c36302032322e373131325a222066696c6c3d227768697465222f3e3c7061746820643d224d39302e353634322037372e32383839483131364c37322e37313435202d332e3035313736652d30354c36302032322e373131314c39302e353634322037372e323838395a222066696c6c3d227768697465222f3e3c7061746820643d224d36302037332e333835334336372e363033372037332e333835332037332e373637372036372e303330332037332e373637372035392e313930394337332e373637372035312e333531352036372e363033372034342e393936342036302034342e393936344335322e333936342034342e393936342034362e323332342035312e333531352034362e323332342035392e313930394334362e323332342036372e303330332035322e333936342037332e333835332036302037332e333835335a222066696c6c3d227768697465222f3e3c2f7376673e3c646566733e3c6c696e6561724772616469656e742069643d2261222078313d2230222079313d2230222078323d22323830222079323d2232383022206772616469656e74556e6974733d227573657253706163654f6e557365223e3c73746f702073746f702d636f6c6f723d2223636235656565222f3e3c73746f70206f66667365743d2231222073746f702d636f6c6f723d2223306364376534222073746f702d6f7061636974793d222e3939222f3e3c2f6c696e6561724772616469656e743e3c2f646566733e3c7465787420783d2233322e352220793d223233312220666f6e742d73697a653d223237222066696c6c3d2223666666222066696c7465723d2275726c282362292220666f6e742d66616d696c793d22506c7573204a616b617274612053616e732c44656a6156752053616e732c4e6f746f20436f6c6f7220456d6f6a692c4170706c6520436f6c6f7220456d6f6a692c73616e732d73657269662220666f6e742d7765696768743d22626f6c64223e576562332075736572206e616d65204e4654206f6e20736861726465756d207c2053484d",
  "linkReferences": {},
  "deployedLinkReferences": {}
}