{
  "_format": "hh-sol-artifact-1",
  "contractName": "Domains",
  "sourceName": "contracts/Domains.sol",
  "abi": [
    {
      "inputs": [
        {
          "internalType": "string",
          "name": "_tld",
          "type": "string"
        }
      ],
      "stateMutability": "payable",
      "type": "constructor"
    },
    {
      "inputs": [],
      "name": "AlreadyRegistered",
      "type": "error"
    },
    {
      "inputs": [
        {
          "internalType": "string",
          "name": "name",
          "type": "string"
        }
      ],
      "name": "InvalidName",
      "type": "error"
    },
    {
      "inputs": [],
      "name": "Unauthorized",
      "type": "error"
    },
    {
      "anonymous": false,
      "inputs": [
        {
          "indexed": true,
          "internalType": "address",
          "name": "owner",
          "type": "address"
        },
        {
          "indexed": true,
          "internalType": "address",
          "name": "approved",
          "type": "address"
        },
        {
          "indexed": true,
          "internalType": "uint256",
          "name": "tokenId",
          "type": "uint256"
        }
      ],
      "name": "Approval",
      "type": "event"
    },
    {
      "anonymous": false,
      "inputs": [
        {
          "indexed": true,
          "internalType": "address",
          "name": "owner",
          "type": "address"
        },
        {
          "indexed": true,
          "internalType": "address",
          "name": "operator",
          "type": "address"
        },
        {
          "indexed": false,
          "internalType": "bool",
          "name": "approved",
          "type": "bool"
        }
      ],
      "name": "ApprovalForAll",
      "type": "event"
    },
    {
      "anonymous": false,
      "inputs": [
        {
          "indexed": true,
          "internalType": "address",
          "name": "from",
          "type": "address"
        },
        {
          "indexed": true,
          "internalType": "address",
          "name": "to",
          "type": "address"
        },
        {
          "indexed": true,
          "internalType": "uint256",
          "name": "tokenId",
          "type": "uint256"
        }
      ],
      "name": "Transfer",
      "type": "event"
    },
    {
      "inputs": [
        {
          "internalType": "address",
          "name": "to",
          "type": "address"
        },
        {
          "internalType": "uint256",
          "name": "tokenId",
          "type": "uint256"
        }
      ],
      "name": "approve",
      "outputs": [],
      "stateMutability": "nonpayable",
      "type": "function"
    },
    {
      "inputs": [
        {
          "internalType": "address",
          "name": "owner",
          "type": "address"
        }
      ],
      "name": "balanceOf",
      "outputs": [
        {
          "internalType": "uint256",
          "name": "",
          "type": "uint256"
        }
      ],
      "stateMutability": "view",
      "type": "function"
    },
    {
      "inputs": [
        {
          "internalType": "string",
          "name": "",
          "type": "string"
        }
      ],
      "name": "domains",
      "outputs": [
        {
          "internalType": "address",
          "name": "",
          "type": "address"
        }
      ],
      "stateMutability": "view",
      "type": "function"
    },
    {
      "inputs": [
        {
          "internalType": "string",
          "name": "name",
          "type": "string"
        }
      ],
      "name": "getAddress",
      "outputs": [
        {
          "internalType": "address",
          "name": "",
          "type": "address"
        }
      ],
      "stateMutability": "view",
      "type": "function"
    },
    {
      "inputs": [],
      "name": "getAllNames",
      "outputs": [
        {
          "internalType": "string[]",
          "name": "",
          "type": "string[]"
        }
      ],
      "stateMutability": "view",
      "type": "function"
    },
    {
      "inputs": [
        {
          "internalType": "uint256",
          "name": "tokenId",
          "type": "uint256"
        }
      ],
      "name": "getApproved",
      "outputs": [
        {
          "internalType": "address",
          "name": "",
          "type": "address"
        }
      ],
      "stateMutability": "view",
      "type": "function"
    },
    {
      "inputs": [
        {
          "internalType": "string",
          "name": "name",
          "type": "string"
        }
      ],
      "name": "getRecord",
      "outputs": [
        {
          "internalType": "string",
          "name": "",
          "type": "string"
        }
      ],
      "stateMutability": "view",
      "type": "function"
    },
    {
      "inputs": [
        {
          "internalType": "address",
          "name": "owner",
          "type": "address"
        },
        {
          "internalType": "address",
          "name": "operator",
          "type": "address"
        }
      ],
      "name": "isApprovedForAll",
      "outputs": [
        {
          "internalType": "bool",
          "name": "",
          "type": "bool"
        }
      ],
      "stateMutability": "view",
      "type": "function"
    },
    {
      "inputs": [],
      "name": "isOwner",
      "outputs": [
        {
          "internalType": "bool",
          "name": "",
          "type": "bool"
        }
      ],
      "stateMutability": "view",
      "type": "function"
    },
    {
      "inputs": [],
      "name": "name",
      "outputs": [
        {
          "internalType": "string",
          "name": "",
          "type": "string"
        }
      ],
      "stateMutability": "view",
      "type": "function"
    },
    {
      "inputs": [
        {
          "internalType": "uint256",
          "name": "",
          "type": "uint256"
        }
      ],
      "name": "names",
      "outputs": [
        {
          "internalType": "string",
          "name": "",
          "type": "string"
        }
      ],
      "stateMutability": "view",
      "type": "function"
    },
    {
      "inputs": [],
      "name": "owner",
      "outputs": [
        {
          "internalType": "address payable",
          "name": "",
          "type": "address"
        }
      ],
      "stateMutability": "view",
      "type": "function"
    },
    {
      "inputs": [
        {
          "internalType": "uint256",
          "name": "tokenId",
          "type": "uint256"
        }
      ],
      "name": "ownerOf",
      "outputs": [
        {
          "internalType": "address",
          "name": "",
          "type": "address"
        }
      ],
      "stateMutability": "view",
      "type": "function"
    },
    {
      "inputs": [
        {
          "internalType": "string",
          "name": "name",
          "type": "string"
        }
      ],
      "name": "price",
      "outputs": [
        {
          "internalType": "uint256",
          "name": "",
          "type": "uint256"
        }
      ],
      "stateMutability": "pure",
      "type": "function"
    },
    {
      "inputs": [
        {
          "internalType": "string",
          "name": "",
          "type": "string"
        }
      ],
      "name": "records",
      "outputs": [
        {
          "internalType": "string",
          "name": "",
          "type": "string"
        }
      ],
      "stateMutability": "view",
      "type": "function"
    },
    {
      "inputs": [
        {
          "internalType": "string",
          "name": "name",
          "type": "string"
        }
      ],
      "name": "registers",
      "outputs": [],
      "stateMutability": "payable",
      "type": "function"
    },
    {
      "inputs": [
        {
          "internalType": "address",
          "name": "from",
          "type": "address"
        },
        {
          "internalType": "address",
          "name": "to",
          "type": "address"
        },
        {
          "internalType": "uint256",
          "name": "tokenId",
          "type": "uint256"
        }
      ],
      "name": "safeTransferFrom",
      "outputs": [],
      "stateMutability": "nonpayable",
      "type": "function"
    },
    {
      "inputs": [
        {
          "internalType": "address",
          "name": "from",
          "type": "address"
        },
        {
          "internalType": "address",
          "name": "to",
          "type": "address"
        },
        {
          "internalType": "uint256",
          "name": "tokenId",
          "type": "uint256"
        },
        {
          "internalType": "bytes",
          "name": "_data",
          "type": "bytes"
        }
      ],
      "name": "safeTransferFrom",
      "outputs": [],
      "stateMutability": "nonpayable",
      "type": "function"
    },
    {
      "inputs": [
        {
          "internalType": "address",
          "name": "operator",
          "type": "address"
        },
        {
          "internalType": "bool",
          "name": "approved",
          "type": "bool"
        }
      ],
      "name": "setApprovalForAll",
      "outputs": [],
      "stateMutability": "nonpayable",
      "type": "function"
    },
    {
      "inputs": [
        {
          "internalType": "string",
          "name": "name",
          "type": "string"
        },
        {
          "internalType": "string",
          "name": "record",
          "type": "string"
        }
      ],
      "name": "setRecord",
      "outputs": [],
      "stateMutability": "nonpayable",
      "type": "function"
    },
    {
      "inputs": [
        {
          "internalType": "bytes4",
          "name": "interfaceId",
          "type": "bytes4"
        }
      ],
      "name": "supportsInterface",
      "outputs": [
        {
          "internalType": "bool",
          "name": "",
          "type": "bool"
        }
      ],
      "stateMutability": "view",
      "type": "function"
    },
    {
      "inputs": [],
      "name": "symbol",
      "outputs": [
        {
          "internalType": "string",
          "name": "",
          "type": "string"
        }
      ],
      "stateMutability": "view",
      "type": "function"
    },
    {
      "inputs": [],
      "name": "tld",
      "outputs": [
        {
          "internalType": "string",
          "name": "",
          "type": "string"
        }
      ],
      "stateMutability": "view",
      "type": "function"
    },
    {
      "inputs": [
        {
          "internalType": "uint256",
          "name": "tokenId",
          "type": "uint256"
        }
      ],
      "name": "tokenURI",
      "outputs": [
        {
          "internalType": "string",
          "name": "",
          "type": "string"
        }
      ],
      "stateMutability": "view",
      "type": "function"
    },
    {
      "inputs": [
        {
          "internalType": "address",
          "name": "from",
          "type": "address"
        },
        {
          "internalType": "address",
          "name": "to",
          "type": "address"
        },
        {
          "internalType": "uint256",
          "name": "tokenId",
          "type": "uint256"
        }
      ],
      "name": "transferFrom",
      "outputs": [],
      "stateMutability": "nonpayable",
      "type": "function"
    },
    {
      "inputs": [
        {
          "internalType": "string",
          "name": "name",
          "type": "string"
        }
      ],
      "name": "valid",
      "outputs": [
        {
          "internalType": "bool",
          "name": "",
          "type": "bool"
        }
      ],
      "stateMutability": "pure",
      "type": "function"
    },
    {
      "inputs": [],
      "name": "withdraw",
      "outputs": [],
      "stateMutability": "nonpayable",
      "type": "function"
    }
  ],
  "bytecode": "0x6105c060405261051f6080818152906200319560a03980516200002b91600d91602090910190620001e4565b5060408051808201909152600d8082526c1e17ba32bc3a1f1e17b9bb339f60991b60209092019182526200006291600e91620001e4565b50604051620036d8380380620036d88339810160408190526200008591620002d3565b604051806060016040528060248152602001620036b4602491396040518060400160405280600e81526020016d576562332055736572204e616d6560901b8152508160009080519060200190620000de929190620001e4565b508051620000f4906001906020840190620001e4565b5050600c80546001600160a01b031916331790555080516200011e906008906020840190620001e4565b506200016b6040518060400160405280601981526020017f2573206e616d65207365727669636573206465706c6f79656400000000000000815250826200017260201b620015131760201c565b5062000428565b620001bf82826040516024016200018b929190620003b9565b60408051601f198184030181529190526020810180516001600160e01b03908116634b5c427760e01b17909152620001c316565b5050565b80516a636f6e736f6c652e6c6f67602083016000808483855afa5050505050565b828054620001f290620003eb565b90600052602060002090601f01602090048101928262000216576000855562000261565b82601f106200023157805160ff191683800117855562000261565b8280016001018555821562000261579182015b828111156200026157825182559160200191906001019062000244565b506200026f92915062000273565b5090565b5b808211156200026f576000815560010162000274565b634e487b7160e01b600052604160045260246000fd5b60005b83811015620002bd578181015183820152602001620002a3565b83811115620002cd576000848401525b50505050565b600060208284031215620002e657600080fd5b81516001600160401b0380821115620002fe57600080fd5b818401915084601f8301126200031357600080fd5b8151818111156200032857620003286200028a565b604051601f8201601f19908116603f011681019083821181831017156200035357620003536200028a565b816040528281528760208487010111156200036d57600080fd5b62000380836020830160208801620002a0565b979650505050505050565b60008151808452620003a5816020860160208601620002a0565b601f01601f19169290920160200192915050565b604081526000620003ce60408301856200038b565b8281036020840152620003e281856200038b565b95945050505050565b600181811c908216806200040057607f821691505b602082108114156200042257634e487b7160e01b600052602260045260246000fd5b50919050565b612d5d80620004386000396000f3fe60806040526004361061019c5760003560e01c80636352211e116100ec578063b88d4fde1161008a578063c87b56dd11610064578063c87b56dd146104b3578063e985e9c5146104d3578063fb825e5f1461051c578063fe2c61981461053e57600080fd5b8063b88d4fde14610453578063bf40fac114610473578063c1880a981461049357600080fd5b80638f32d59b116100c65780638f32d59b146103de57806395d89b41146103fe5780639791c09714610413578063a22cb4651461043357600080fd5b80636352211e1461037057806370a08231146103905780638da5cb5b146103be57600080fd5b8063264492351161015957806342842e0e1161013357806342842e0e146102fd57806343b9de381461031d5780634622ab0314610330578063541e771d1461035057600080fd5b806326449235146102925780632d551432146102d35780633ccfd60b146102e857600080fd5b806301ffc9a7146101a157806306fdde03146101d6578063081812fc146101f8578063095ea7b31461023057806311dd88451461025257806323b872dd14610272575b600080fd5b3480156101ad57600080fd5b506101c16101bc3660046122c7565b61055e565b60405190151581526020015b60405180910390f35b3480156101e257600080fd5b506101eb6105b0565b6040516101cd919061233c565b34801561020457600080fd5b5061021861021336600461234f565b610642565b6040516001600160a01b0390911681526020016101cd565b34801561023c57600080fd5b5061025061024b366004612384565b6106cf565b005b34801561025e57600080fd5b506101eb61026d3660046123f7565b6107e5565b34801561027e57600080fd5b5061025061028d366004612439565b610898565b34801561029e57600080fd5b506102186102ad366004612501565b80516020818301810180516009825292820191909301209152546001600160a01b031681565b3480156102df57600080fd5b506101eb6108c9565b3480156102f457600080fd5b50610250610957565b34801561030957600080fd5b50610250610318366004612439565b610a05565b61025061032b3660046123f7565b610a20565b34801561033c57600080fd5b506101eb61034b36600461234f565b610db3565b34801561035c57600080fd5b506101eb61036b366004612501565b610dcc565b34801561037c57600080fd5b5061021861038b36600461234f565b610df0565b34801561039c57600080fd5b506103b06103ab36600461254a565b610e67565b6040519081526020016101cd565b3480156103ca57600080fd5b50600c54610218906001600160a01b031681565b3480156103ea57600080fd5b50600c546001600160a01b031633146101c1565b34801561040a57600080fd5b506101eb610eee565b34801561041f57600080fd5b506101c161042e3660046123f7565b610efd565b34801561043f57600080fd5b5061025061044e366004612565565b610f94565b34801561045f57600080fd5b5061025061046e3660046125a1565b610f9f565b34801561047f57600080fd5b5061021861048e3660046123f7565b610fd7565b34801561049f57600080fd5b506102506104ae36600461261d565b61100c565b3480156104bf57600080fd5b506101eb6104ce36600461234f565b61108c565b3480156104df57600080fd5b506101c16104ee366004612689565b6001600160a01b03918216600090815260056020908152604080832093909416825291909152205460ff1690565b34801561052857600080fd5b50610531611203565b6040516101cd91906126bc565b34801561054a57600080fd5b506103b06105593660046123f7565b611463565b60006001600160e01b031982166380ac58cd60e01b148061058f57506001600160e01b03198216635b5e139f60e01b145b806105aa57506301ffc9a760e01b6001600160e01b03198316145b92915050565b6060600080546105bf9061271e565b80601f01602080910402602001604051908101604052809291908181526020018280546105eb9061271e565b80156106385780601f1061060d57610100808354040283529160200191610638565b820191906000526020600020905b81548152906001019060200180831161061b57829003601f168201915b5050505050905090565b600061064d82611558565b6106b35760405162461bcd60e51b815260206004820152602c60248201527f4552433732313a20617070726f76656420717565727920666f72206e6f6e657860448201526b34b9ba32b73a103a37b5b2b760a11b60648201526084015b60405180910390fd5b506000908152600460205260409020546001600160a01b031690565b60006106da82610df0565b9050806001600160a01b0316836001600160a01b031614156107485760405162461bcd60e51b815260206004820152602160248201527f4552433732313a20617070726f76616c20746f2063757272656e74206f776e656044820152603960f91b60648201526084016106aa565b336001600160a01b0382161480610764575061076481336104ee565b6107d65760405162461bcd60e51b815260206004820152603860248201527f4552433732313a20617070726f76652063616c6c6572206973206e6f74206f7760448201527f6e6572206e6f7220617070726f76656420666f7220616c6c000000000000000060648201526084016106aa565b6107e08383611575565b505050565b6060600a83836040516107f9929190612753565b908152602001604051809103902080546108129061271e565b80601f016020809104026020016040519081016040528092919081815260200182805461083e9061271e565b801561088b5780601f106108605761010080835404028352916020019161088b565b820191906000526020600020905b81548152906001019060200180831161086e57829003601f168201915b5050505050905092915050565b6108a233826115e3565b6108be5760405162461bcd60e51b81526004016106aa90612763565b6107e08383836116cc565b600880546108d69061271e565b80601f01602080910402602001604051908101604052809291908181526020018280546109029061271e565b801561094f5780601f106109245761010080835404028352916020019161094f565b820191906000526020600020905b81548152906001019060200180831161093257829003601f168201915b505050505081565b600c546001600160a01b0316331461096e57600080fd5b6040514790600090339083908381818185875af1925050503d80600081146109b2576040519150601f19603f3d011682016040523d82523d6000602084013e6109b7565b606091505b5050905080610a015760405162461bcd60e51b81526020600482015260166024820152756661696c656420746f2077697468647261772053484d60501b60448201526064016106aa565b5050565b6107e083838360405180602001604052806000815250610f9f565b60006001600160a01b031660098383604051610a3d929190612753565b908152604051908190036020019020546001600160a01b031614610a7457604051630ea075bf60e21b815260040160405180910390fd5b610a7e8282610efd565b610a9f578181604051637f19f48d60e01b81526004016106aa9291906127b4565b6000610aab8383611463565b905080341015610af35760405162461bcd60e51b81526020600482015260136024820152721b9bdd08195b9bdd59da0814d213481c185a59606a1b60448201526064016106aa565b600083836008604051602001610b0b9392919061287d565b60408051601f1981840301815282820190915260058252645f6e616d6560d81b60208301529150610b3c9082611513565b6000600d82600e604051602001610b55939291906128a6565b60405160208183030381529060405290506000610b7160075490565b90506000610bb487878080601f01602080910402602001604051908101604052809392919081815260200183838082843760009201919091525061186892505050565b90506000610bc18261196b565b9050610c1d6040518060600160405280602e8152602001612c48602e913989898080601f016020809104026020016040519081016040528093929190818152602001838380828437600092019190915250889250611a69915050565b6000610c5386610c2c87611ab0565b84604051602001610c3f939291906128d9565b604051602081830303815290604052611ab0565b9050600081604051602001610c6891906129d0565b60408051601f19818403018152606083019091526039808352909250610c969190612c766020830139611c16565b610cc66040518060400160405280600e81526020016d46696e616c20746f6b656e55524960901b81525082611513565b610ce7604051806060016040528060398152602001612caf60399139611c16565b610cf13386611c5c565b610cfb8582611c76565b3360098b8b604051610d0e929190612753565b908152602001604051809103902060006101000a8154816001600160a01b0302191690836001600160a01b03160217905550610d7f6040518060400160405280601981526020017f25732068617320726567697374726564206120646f6d61696e0000000000000081525033611d01565b6000858152600b60205260409020610d98908b8b6121a4565b50610da7600780546001019055565b50505050505050505050565b600b60205260009081526040902080546108d69061271e565b8051602081830181018051600a82529282019190930120915280546108d69061271e565b6000818152600260205260408120546001600160a01b0316806105aa5760405162461bcd60e51b815260206004820152602960248201527f4552433732313a206f776e657220717565727920666f72206e6f6e657869737460448201526832b73a103a37b5b2b760b91b60648201526084016106aa565b60006001600160a01b038216610ed25760405162461bcd60e51b815260206004820152602a60248201527f4552433732313a2062616c616e636520717565727920666f7220746865207a65604482015269726f206164647265737360b01b60648201526084016106aa565b506001600160a01b031660009081526003602052604090205490565b6060600180546105bf9061271e565b60006003610f4084848080601f01602080910402602001604051908101604052809392919081815260200183838082843760009201919091525061186892505050565b10158015610f8d5750600a610f8a84848080601f01602080910402602001604051908101604052809392919081815260200183838082843760009201919091525061186892505050565b11155b9392505050565b610a01338383611d46565b610fa933836115e3565b610fc55760405162461bcd60e51b81526004016106aa90612763565b610fd184848484611e15565b50505050565b600060098383604051610feb929190612753565b908152604051908190036020019020546001600160a01b0316905092915050565b6009848460405161101e929190612753565b90815260405190819003602001902054336001600160a01b0390911614611057576040516282b42960e81b815260040160405180910390fd5b8181600a868660405161106b929190612753565b9081526040519081900360200190206110859290916121a4565b5050505050565b606061109782611558565b6110fd5760405162461bcd60e51b815260206004820152603160248201527f45524337323155524953746f726167653a2055524920717565727920666f72206044820152703737b732bc34b9ba32b73a103a37b5b2b760791b60648201526084016106aa565b600082815260066020526040812080546111169061271e565b80601f01602080910402602001604051908101604052809291908181526020018280546111429061271e565b801561118f5780601f106111645761010080835404028352916020019161118f565b820191906000526020600020905b81548152906001019060200180831161117257829003601f168201915b5050505050905060006111ad60408051602081019091526000815290565b90508051600014156111c0575092915050565b8151156111f25780826040516020016111da929190612a15565b60405160208183030381529060405292505050919050565b6111fb84611e48565b949350505050565b6060600061121060075490565b67ffffffffffffffff81111561122857611228612475565b60405190808252806020026020018201604052801561125b57816020015b60608152602001906001900390816112465790505b50905060005b60075481101561145d5761133e60405180604001604052806016815260200175034ba32b930ba34b7b7103490103730b6b2b9adb4ae960551b815250600b600084815260200190815260200160002080546112bb9061271e565b80601f01602080910402602001604051908101604052809291908181526020018280546112e79061271e565b80156113345780601f1061130957610100808354040283529160200191611334565b820191906000526020600020905b81548152906001019060200180831161131757829003601f168201915b5050505050611513565b6113966040518060400160405280601981526020017f697465726174696f6e20692020616c6c4e616d65735b695d200000000000000081525083838151811061138957611389612a44565b6020026020010151611513565b6000818152600b6020526040902080546113af9061271e565b80601f01602080910402602001604051908101604052809291908181526020018280546113db9061271e565b80156114285780601f106113fd57610100808354040283529160200191611428565b820191906000526020600020905b81548152906001019060200180831161140b57829003601f168201915b505050505082828151811061143f5761143f612a44565b6020026020010181905250808061145590612a70565b915050611261565b50919050565b6000806114a584848080601f01602080910402602001604051908101604052809392919081815260200183838082843760009201919091525061186892505050565b9050600281116114b457600080fd5b80600314156114ce57677ce66c50e28400009150506105aa565b80600414156114e857674563918244f400009150506105aa565b8060051415611502576729a2241af62c00009150506105aa565b670de0b6b3a76400009150506105aa565b610a018282604051602401611529929190612a8b565b60408051601f198184030181529190526020810180516001600160e01b0316634b5c427760e01b179052611f1f565b6000908152600260205260409020546001600160a01b0316151590565b600081815260046020526040902080546001600160a01b0319166001600160a01b03841690811790915581906115aa82610df0565b6001600160a01b03167f8c5be1e5ebec7d5bd14f71427d1e84f3dd0314c0f7b2291e5b200ac8c7c3b92560405160405180910390a45050565b60006115ee82611558565b61164f5760405162461bcd60e51b815260206004820152602c60248201527f4552433732313a206f70657261746f7220717565727920666f72206e6f6e657860448201526b34b9ba32b73a103a37b5b2b760a11b60648201526084016106aa565b600061165a83610df0565b9050806001600160a01b0316846001600160a01b031614806116a157506001600160a01b0380821660009081526005602090815260408083209388168352929052205460ff165b806111fb5750836001600160a01b03166116ba84610642565b6001600160a01b031614949350505050565b826001600160a01b03166116df82610df0565b6001600160a01b0316146117435760405162461bcd60e51b815260206004820152602560248201527f4552433732313a207472616e736665722066726f6d20696e636f72726563742060448201526437bbb732b960d91b60648201526084016106aa565b6001600160a01b0382166117a55760405162461bcd60e51b8152602060048201526024808201527f4552433732313a207472616e7366657220746f20746865207a65726f206164646044820152637265737360e01b60648201526084016106aa565b6117b0600082611575565b6001600160a01b03831660009081526003602052604081208054600192906117d9908490612ab9565b90915550506001600160a01b0382166000908152600360205260408120805460019290611807908490612ad0565b909155505060008181526002602052604080822080546001600160a01b0319166001600160a01b0386811691821790925591518493918716917fddf252ad1be2c89b69c2b068fc378daa952ba7f163c4a11628f55a4df523b3ef91a4505050565b8051600090819081905b8082101561196257600085838151811061188e5761188e612a44565b01602001516001600160f81b0319169050600160ff1b8110156118bd576118b6600184612ad0565b925061194f565b600760fd1b6001600160f81b0319821610156118de576118b6600284612ad0565b600f60fc1b6001600160f81b0319821610156118ff576118b6600384612ad0565b601f60fb1b6001600160f81b031982161015611920576118b6600484612ad0565b603f60fa1b6001600160f81b031982161015611941576118b6600584612ad0565b61194c600684612ad0565b92505b508261195a81612a70565b935050611872565b50909392505050565b60608161198f5750506040805180820190915260018152600360fc1b602082015290565b8160005b81156119b957806119a381612a70565b91506119b29050600a83612afe565b9150611993565b60008167ffffffffffffffff8111156119d4576119d4612475565b6040519080825280601f01601f1916602001820160405280156119fe576020820181803683370190505b5090505b84156111fb57611a13600183612ab9565b9150611a20600a86612b12565b611a2b906030612ad0565b60f81b818381518110611a4057611a40612a44565b60200101906001600160f81b031916908160001a905350611a62600a86612afe565b9450611a02565b6107e0838383604051602401611a8193929190612b26565b60408051601f198184030181529190526020810180516001600160e01b031663f362ca5960e01b179052611f1f565b805160609080611ad0575050604080516020810190915260008152919050565b60006003611adf836002612ad0565b611ae99190612afe565b611af4906004612b5c565b90506000611b03826020612ad0565b67ffffffffffffffff811115611b1b57611b1b612475565b6040519080825280601f01601f191660200182016040528015611b45576020820181803683370190505b5090506000604051806060016040528060408152602001612ce8604091399050600181016020830160005b86811015611bd1576003818a01810151603f601282901c8116860151600c83901c8216870151600684901c831688015192909316870151600891821b60ff94851601821b92841692909201901b91160160e01b835260049092019101611b70565b506003860660018114611beb5760028114611bfc57611c08565b613d3d60f01b600119830152611c08565b603d60f81b6000198301525b505050918152949350505050565b611c5981604051602401611c2a919061233c565b60408051601f198184030181529190526020810180516001600160e01b031663104c13eb60e21b179052611f1f565b50565b610a01828260405180602001604052806000815250611f40565b611c7f82611558565b611ce25760405162461bcd60e51b815260206004820152602e60248201527f45524337323155524953746f726167653a2055524920736574206f66206e6f6e60448201526d32bc34b9ba32b73a103a37b5b2b760911b60648201526084016106aa565b600082815260066020908152604090912082516107e092840190612228565b610a018282604051602401611d17929190612b7b565b60408051601f198184030181529190526020810180516001600160e01b031663319af33360e01b179052611f1f565b816001600160a01b0316836001600160a01b03161415611da85760405162461bcd60e51b815260206004820152601960248201527f4552433732313a20617070726f766520746f2063616c6c65720000000000000060448201526064016106aa565b6001600160a01b03838116600081815260056020908152604080832094871680845294825291829020805460ff191686151590811790915591519182527f17307eab39ab6107e8899845ad3d59bd9653f200f220920489ca2b5937696c31910160405180910390a3505050565b611e208484846116cc565b611e2c84848484611f73565b610fd15760405162461bcd60e51b81526004016106aa90612ba5565b6060611e5382611558565b611eb75760405162461bcd60e51b815260206004820152602f60248201527f4552433732314d657461646174613a2055524920717565727920666f72206e6f60448201526e3732bc34b9ba32b73a103a37b5b2b760891b60648201526084016106aa565b6000611ece60408051602081019091526000815290565b90506000815111611eee5760405180602001604052806000815250610f8d565b80611ef88461196b565b604051602001611f09929190612a15565b6040516020818303038152906040529392505050565b80516a636f6e736f6c652e6c6f67602083016000808483855afa5050505050565b611f4a8383612071565b611f576000848484611f73565b6107e05760405162461bcd60e51b81526004016106aa90612ba5565b60006001600160a01b0384163b1561206657604051630a85bd0160e11b81526001600160a01b0385169063150b7a0290611fb7903390899088908890600401612bf7565b6020604051808303816000875af1925050508015611ff2575060408051601f3d908101601f19168201909252611fef91810190612c2a565b60015b61204c573d808015612020576040519150601f19603f3d011682016040523d82523d6000602084013e612025565b606091505b5080516120445760405162461bcd60e51b81526004016106aa90612ba5565b805181602001fd5b6001600160e01b031916630a85bd0160e11b1490506111fb565b506001949350505050565b6001600160a01b0382166120c75760405162461bcd60e51b815260206004820181905260248201527f4552433732313a206d696e7420746f20746865207a65726f206164647265737360448201526064016106aa565b6120d081611558565b1561211d5760405162461bcd60e51b815260206004820152601c60248201527f4552433732313a20746f6b656e20616c7265616479206d696e7465640000000060448201526064016106aa565b6001600160a01b0382166000908152600360205260408120805460019290612146908490612ad0565b909155505060008181526002602052604080822080546001600160a01b0319166001600160a01b03861690811790915590518392907fddf252ad1be2c89b69c2b068fc378daa952ba7f163c4a11628f55a4df523b3ef908290a45050565b8280546121b09061271e565b90600052602060002090601f0160209004810192826121d25760008555612218565b82601f106121eb5782800160ff19823516178555612218565b82800160010185558215612218579182015b828111156122185782358255916020019190600101906121fd565b5061222492915061229c565b5090565b8280546122349061271e565b90600052602060002090601f0160209004810192826122565760008555612218565b82601f1061226f57805160ff1916838001178555612218565b82800160010185558215612218579182015b82811115612218578251825591602001919060010190612281565b5b80821115612224576000815560010161229d565b6001600160e01b031981168114611c5957600080fd5b6000602082840312156122d957600080fd5b8135610f8d816122b1565b60005b838110156122ff5781810151838201526020016122e7565b83811115610fd15750506000910152565b600081518084526123288160208601602086016122e4565b601f01601f19169290920160200192915050565b602081526000610f8d6020830184612310565b60006020828403121561236157600080fd5b5035919050565b80356001600160a01b038116811461237f57600080fd5b919050565b6000806040838503121561239757600080fd5b6123a083612368565b946020939093013593505050565b60008083601f8401126123c057600080fd5b50813567ffffffffffffffff8111156123d857600080fd5b6020830191508360208285010111156123f057600080fd5b9250929050565b6000806020838503121561240a57600080fd5b823567ffffffffffffffff81111561242157600080fd5b61242d858286016123ae565b90969095509350505050565b60008060006060848603121561244e57600080fd5b61245784612368565b925061246560208501612368565b9150604084013590509250925092565b634e487b7160e01b600052604160045260246000fd5b600067ffffffffffffffff808411156124a6576124a6612475565b604051601f8501601f19908116603f011681019082821181831017156124ce576124ce612475565b816040528093508581528686860111156124e757600080fd5b858560208301376000602087830101525050509392505050565b60006020828403121561251357600080fd5b813567ffffffffffffffff81111561252a57600080fd5b8201601f8101841361253b57600080fd5b6111fb8482356020840161248b565b60006020828403121561255c57600080fd5b610f8d82612368565b6000806040838503121561257857600080fd5b61258183612368565b91506020830135801515811461259657600080fd5b809150509250929050565b600080600080608085870312156125b757600080fd5b6125c085612368565b93506125ce60208601612368565b925060408501359150606085013567ffffffffffffffff8111156125f157600080fd5b8501601f8101871361260257600080fd5b6126118782356020840161248b565b91505092959194509250565b6000806000806040858703121561263357600080fd5b843567ffffffffffffffff8082111561264b57600080fd5b612657888389016123ae565b9096509450602087013591508082111561267057600080fd5b5061267d878288016123ae565b95989497509550505050565b6000806040838503121561269c57600080fd5b6126a583612368565b91506126b360208401612368565b90509250929050565b6000602080830181845280855180835260408601915060408160051b870101925083870160005b8281101561271157603f198886030184526126ff858351612310565b945092850192908501906001016126e3565b5092979650505050505050565b600181811c9082168061273257607f821691505b6020821081141561145d57634e487b7160e01b600052602260045260246000fd5b8183823760009101908152919050565b60208082526031908201527f4552433732313a207472616e736665722063616c6c6572206973206e6f74206f6040820152701ddb995c881b9bdc88185c1c1c9bdd9959607a1b606082015260800190565b60208152816020820152818360408301376000818301604090810191909152601f909201601f19160101919050565b8054600090600181811c90808316806127fd57607f831692505b602080841082141561281f57634e487b7160e01b600052602260045260246000fd5b818015612833576001811461284457612871565b60ff19861689528489019650612871565b60008881526020902060005b868110156128695781548b820152908501908301612850565b505084890196505b50505050505092915050565b82848237601760f91b81840190815260009061289c60018201856127e3565b9695505050505050565b60006128b282866127e3565b84516128c28183602089016122e4565b6128ce818301866127e3565b979650505050505050565b683d913730b6b2911d1160b91b815283516000906128fe8160098501602089016122e4565b7f222c226465736372697074696f6e223a22576562332075736572206e616d65206009918401918201527f4e4654206f6e20736861726465756d207c2053484d222c22696d616765223a2260298201527f646174613a696d6167652f7376672b786d6c3b6261736536342c000000000000604982015284516129878160638401602089016122e4565b6b1116113632b733ba34111d1160a11b6063929091019182015283516129b481606f8401602088016122e4565b61227d60f01b606f929091019182015260710195945050505050565b7f646174613a6170706c69636174696f6e2f6a736f6e3b6261736536342c000000815260008251612a0881601d8501602087016122e4565b91909101601d0192915050565b60008351612a278184602088016122e4565b835190830190612a3b8183602088016122e4565b01949350505050565b634e487b7160e01b600052603260045260246000fd5b634e487b7160e01b600052601160045260246000fd5b6000600019821415612a8457612a84612a5a565b5060010190565b604081526000612a9e6040830185612310565b8281036020840152612ab08185612310565b95945050505050565b600082821015612acb57612acb612a5a565b500390565b60008219821115612ae357612ae3612a5a565b500190565b634e487b7160e01b600052601260045260246000fd5b600082612b0d57612b0d612ae8565b500490565b600082612b2157612b21612ae8565b500690565b606081526000612b396060830186612310565b8281036020840152612b4b8186612310565b915050826040830152949350505050565b6000816000190483118215151615612b7657612b76612a5a565b500290565b604081526000612b8e6040830185612310565b905060018060a01b03831660208301529392505050565b60208082526032908201527f4552433732313a207472616e7366657220746f206e6f6e20455243373231526560408201527131b2b4bb32b91034b6b83632b6b2b73a32b960711b606082015260800190565b6001600160a01b038581168252841660208201526040810183905260806060820181905260009061289c90830184612310565b600060208284031215612c3c57600080fd5b8151610f8d816122b156fe5265676973746572696e67202573206f6e2074686520636f6e7472616374207769746820746f6b656e49642025640a2d2d2d2d2d2d2d2d2d2d2d2d2d2d2d2d2d2d2d2d2d2d2d2d2d2d2d2d2d2d2d2d2d2d2d2d2d2d2d2d2d2d2d2d2d2d2d2d2d2d2d2d2d2d2d2d2d2d2d2d2d2d2d2d2d2d2d2d2d2d2d2d2d2d2d2d2d2d2d2d2d2d2d2d2d2d2d2d2d2d2d2d2d2d2d2d2d2d2d2d2d2d2d2d2d2d2d2d2d2d2d2d0a4142434445464748494a4b4c4d4e4f505152535455565758595a6162636465666768696a6b6c6d6e6f707172737475767778797a303132333435363738392b2fa2646970667358221220672d3c8f7300d8183e92ce9e671a56a74f76ba06f9f9416c41deb63be31ff35f64736f6c634300080a00333c73766720786d6c6e733d22687474703a2f2f7777772e77332e6f72672f323030302f737667222077696474683d2232373022206865696768743d22323730222066696c6c3d226e6f6e65223e3c706174682066696c6c3d2275726c282361292220643d224d302030683237307632373048307a222f3e3c646566733e3c66696c7465722069643d22622220636f6c6f722d696e746572706f6c6174696f6e2d66696c746572733d2273524742222066696c746572556e6974733d227573657253706163654f6e55736522206865696768743d22323730222077696474683d22323730223e3c666544726f70536861646f772064783d2230222064793d22312220737464446576696174696f6e3d22322220666c6f6f642d6f7061636974793d222e323235222077696474683d223230302522206865696768743d2232303025222f3e3c2f66696c7465723e3c2f646566733e3c73766720783d2231352220793d223135222077696474683d2231323022206865696768743d22313038222076696577426f783d223020302031323020313038222066696c6c3d226e6f6e652220786d6c6e733d22687474703a2f2f7777772e77332e6f72672f323030302f737667223e3c7061746820643d224d32392e343335382037372e323838384c31362e3732313320313030483130332e3237394c39302e353634332037372e323838384832392e343335385a222066696c6c3d227768697465222f3e3c7061746820643d224d36302032322e373131324c34372e3238353620304c342037372e323838394832392e343335384c36302032322e373131325a222066696c6c3d227768697465222f3e3c7061746820643d224d39302e353634322037372e32383839483131364c37322e37313435202d332e3035313736652d30354c36302032322e373131314c39302e353634322037372e323838395a222066696c6c3d227768697465222f3e3c7061746820643d224d36302037332e333835334336372e363033372037332e333835332037332e373637372036372e303330332037332e373637372035392e313930394337332e373637372035312e333531352036372e363033372034342e393936342036302034342e393936344335322e333936342034342e393936342034362e323332342035312e333531352034362e323332342035392e313930394334362e323332342036372e303330332035322e333936342037332e333835332036302037332e333835335a222066696c6c3d227768697465222f3e3c2f7376673e3c646566733e3c6c696e6561724772616469656e742069643d2261222078313d2230222079313d2230222078323d22323730222079323d2232373022206772616469656e74556e6974733d227573657253706163654f6e557365223e3c73746f702073746f702d636f6c6f723d2223636235656565222f3e3c73746f70206f66667365743d2231222073746f702d636f6c6f723d2223306364376534222073746f702d6f7061636974793d222e3939222f3e3c2f6c696e6561724772616469656e743e3c2f646566733e3c7465787420783d2233322e352220793d223233312220666f6e742d73697a653d223237222066696c6c3d2223666666222066696c7465723d2275726c282362292220666f6e742d66616d696c793d22506c7573204a616b617274612053616e732c44656a6156752053616e732c4e6f746f20436f6c6f7220456d6f6a692c4170706c6520436f6c6f7220456d6f6a692c73616e732d73657269662220666f6e742d7765696768743d22626f6c64223e576562332075736572206e616d65204e4654206f6e20736861726465756d207c2053484d",
  "linkReferences": {},
  "deployedLinkReferences": {}
}